:020000040800F2
:10000000000002205D210008AD210008AD2100089C
:10001000AD210008AD210008AD210008000000005E
:10002000000000000000000000000000AD210008FA
:10003000AD21000800000000AD21000809200008E3
:10004000AD210008AD210008AD210008AD21000858
:10005000AD210008AD210008AD210008AD21000848
:10006000AD210008AD210008AD210008AD21000838
:10007000AD210008AD210008AD210008AD21000828
:10008000AD210008AD210008AD210008AD21000818
:10009000AD210008AD210008AD210008AD21000808
:1000A000AD210008AD210008AD210008AD210008F8
:1000B000AD210008AD210008AD210008AD210008E8
:1000C000AD210008AD210008AD210008AD210008D8
:1000D000AD210008AD210008AD210008AD210008C8
:1000E000AD210008AD210008AD210008AD210008B8
:1000F000AD210008AD210008AD210008AD210008A8
:10010000AD210008AD210008AD210008AD21000897
:10011000AD210008AD210008AD210008AD21000887
:10012000AD210008AD210008AD210008AD21000877
:10013000AD210008AD210008AD210008AD21000867
:10014000AD210008AD210008AD210008AD21000857
:10015000AD210008AD210008AD210008AD21000847
:10016000AD210008AD210008AD210008AD21000837
:10017000AD210008AD210008AD21000800000000FD
:08018000AD210008AD210008CB
:1001880010B5054C237833B9044B13B10448AFF3C9
:1001980000800123237010BD0C0000200000000027
:1001A800F821000808B5034B1BB103490348AFF316
:1001B800008008BD0000000010000020F8210008A1
:1001C80081F0004102E000BF83F0004330B54FEA00
:1001D80041044FEA430594EA050F08BF90EA020F6D
:1001E8001FBF54EA000C55EA020C7FEA645C7FEA00
:1001F800655C00F0E2804FEA5454D4EB5555B8BF23
:100208006D420CDD2C4480EA020281EA030382EA93
:10021800000083EA010180EA020281EA0303362D25
:1002280088BF30BD11F0004F4FEA01314FF4801CF8
:100238004CEA113102D0404261EB410113F0004F0A
:100248004FEA03334CEA133302D0524263EB4303C1
:1002580094EA050F00F0A780A4F10104D5F1200E5F
:100268000DDB02FA0EFC22FA05F2801841F10001BA
:1002780003FA0EF2801843FA05F359410EE0A5F18E
:1002880020050EF1200E012A03FA0EFC28BF4CF0BF
:10029800020C43FA05F3C01851EBE37101F0004575
:1002A80007D54FF0000EDCF1000C7EEB00006EEB82
:1002B8000101B1F5801F1BD3B1F5001F0CD349080C
:1002C8005FEA30004FEA3C0C04F101044FEA445263
:1002D80012F5800F80F09A80BCF1004F08BF5FEAEA
:1002E800500C50F1000041EB045141EA050130BDCA
:1002F8005FEA4C0C404141EB010111F4801FA4F16D
:100308000104E9D191F0000F04BF01460020B1FAC1
:1003180081F308BF2033A3F10B03B3F120020CDAF9
:100328000C3208DD02F1140CC2F10C0201FA0CF0D7
:1003380021FA02F10CE002F11402D8BFC2F1200C3C
:1003480001FA02F120FA0CFCDCBF41EA0C019040F2
:10035800E41AA2BF01EB0451294330BD6FEA04043B
:100368001F3C1CDA0C340EDC04F11404C4F1200226
:1003780020FA04F001FA02F340EA030021FA04F338
:1003880045EA030130BDC4F10C04C4F1200220FA8F
:1003980002F001FA04F340EA0300294630BD21FACD
:1003A80004F0294630BD94F0000F83F4801306BF93
:1003B80081F480110134013D4EE77FEA645C18BF87
:1003C8007FEA655C29D094EA050F08BF90EA020F1E
:1003D80005D054EA000C04BF1946104630BD91EA16
:1003E800030F1EBF0021002030BD5FEA545C05D119
:1003F8004000494128BF41F0004130BD14F5800458
:100408003CBF01F5801130BD01F0004545F0FE41CB
:1004180041F470014FF0000030BD7FEA645C1ABF00
:10042800194610467FEA655C1CBF0B46024650EA37
:10043800013406BF52EA033591EA030F41F4002163
:1004480030BD00BF90F0000F04BF0021704730B5E9
:100458004FF4806404F132044FF000054FF00001BE
:1004680050E700BF90F0000F04BF0021704730B57F
:100478004FF4806404F1320410F0004548BF404254
:100488004FF000013EE700BF42004FEAE2014FEAA9
:1004980031014FEA02701FBF12F07F4393F07F4F84
:1004A80081F06051704732F07F4208BF704793F087
:1004B8007F4F04BF41F40021704730B54FF460749A
:1004C80001F0004521F000411CE700BF50EA01029D
:1004D80008BF704730B54FF000050AE050EA010246
:1004E80008BF704730B511F0004502D5404261EBB6
:1004F80041014FF4806404F132045FEA915C3FF4F7
:10050800D8AE4FF003025FEADC0C18BF03325FEA93
:10051800DC0C18BF033202EBDC02C2F1200300FA44
:1005280003FC20FA02F001FA03FE40EA0E0021FA69
:1005380002F11444BDE600BF70B54FF0FF0C4CF457
:10054800E06C1CEA11541DBF1CEA135594EA0C0F09
:1005580095EA0C0F00F0DEF82C4481EA030621EA44
:100568004C5123EA4C5350EA013518BF52EA03357F
:1005780041F4801143F4801338D0A0FB02CE4FF031
:100588000005E1FB02E506F00042E0FB03E54FF061
:100598000006E1FB03569CF0000F18BF4EF0010E59
:1005A800A4F1FF04B6F5007F64F5407404D25FEA55
:1005B8004E0E6D4146EB060642EAC62141EA555108
:1005C8004FEAC52040EA5E504FEACE2EB4F1FD0C4A
:1005D80088BFBCF5E06F1ED8BEF1004F08BF5FEAC8
:1005E800500E50F1000041EB045170BD06F000467A
:1005F80046EA010140EA020081EA0301B4EB5C0427
:10060800C2BFD4EB0C0541EA045170BD41F480111E
:100618004FF0000E013C00F3AB8014F1360FDEBF43
:10062800002001F0004170BDC4F10004203C35DA1F
:100638000C341BDC04F11404C4F1200500FA05F3A2
:1006480020FA04F001FA05F240EA020001F0004243
:1006580021F0004110EBD37021FA04F642EB0601B9
:100668005EEA430E08BF20EAD37070BDC4F10C04E3
:10067800C4F1200500FA04F320FA05F001FA04F2A7
:1006880040EA020001F0004110EBD37041F1000193
:100698005EEA430E08BF20EAD37070BDC4F120059E
:1006A80000FA05F24EEA020E20FA04F301FA05F206
:1006B80043EA020321FA04F001F0004121FA04F2AE
:1006C80020EA020000EBD3705EEA430E08BF20EA7E
:1006D800D37070BD94F0000F0FD101F000464000B8
:1006E80041EB010111F4801F08BF013CF7D041EA3A
:1006F800060195F0000F18BF704703F0004652003E
:1007080043EB030313F4801F08BF013DF7D043EA0E
:100718000603704794EA0C0F0CEA135518BF95EAC4
:100728000C0F0CD050EA410618BF52EA4306D1D14B
:1007380081EA030101F000414FF0000070BD50EA6A
:10074800410606BF1046194652EA430619D094EAF4
:100758000C0F02D150EA013613D195EA0C0F05D1DE
:1007680052EA03361CBF104619460AD181EA030132
:1007780001F0004141F0FE4141F470014FF00000EA
:1007880070BD41F0FE4141F4780170BD70B54FF085
:10079800FF0C4CF4E06C1CEA11541DBF1CEA135505
:1007A80094EA0C0F95EA0C0F00F0A7F8A4EB0504E7
:1007B80081EA030E52EA03354FEA013100F08880DE
:1007C8004FEA03334FF0805545EA131343EA1263A7
:1007D8004FEA022245EA111545EA10654FEA00265C
:1007E8000EF000419D4208BF964244F1FD0404F515
:1007F800407402D25B084FEA3202B61A65EB030571
:100808005B084FEA32024FF480104FF4002CB6EB2D
:10081800020E75EB030E22BFB61A754640EA0C00AD
:100828005B084FEA3202B6EB020E75EB030E22BFED
:10083800B61A754640EA5C005B084FEA3202B6EB2E
:10084800020E75EB030E22BFB61A754640EA9C00ED
:100858005B084FEA3202B6EB020E75EB030E22BFBD
:10086800B61A754640EADC0055EA060E18D04FEA7B
:10087800051545EA16754FEA06164FEAC30343EA1B
:1008880052734FEAC2025FEA1C1CC0D111F4801FE8
:100898000BD141EA00014FF000004FF0004CB6E7E1
:1008A80011F4801F04BF01430020B4F1FD0C88BF80
:1008B800BCF5E06F3FF6AFAEB5EB030C04BFB6EB8B
:1008C800020C5FEA500C50F1000041EB045170BD7E
:1008D8000EF0004E4EEA113114EB5C04C2BFD4EBAB
:1008E8000C0541EA045170BD41F480114FF0000E2F
:1008F800013C90E645EA060E8DE60CEA135594EAAB
:100908000C0F08BF95EA0C0F3FF43BAF94EA0C0FAD
:100918000AD150EA01347FF434AF95EA0C0F7FF422
:1009280025AF104619462CE795EA0C0F06D152EA76
:1009380003353FF4FDAE1046194622E750EA41065A
:1009480018BF52EA43067FF4C5AE50EA41047FF46B
:100958000DAF52EA43057FF4EBAE12E74A0011D21D
:1009680012F5001211D20DD56FF47873B3EB625201
:100978000ED44FEAC12343F0004343EA505323FA0D
:1009880002F070474FF00000704750EA013002D182
:100998004FF0FF3070474FF00000704753B94AB925
:1009A800002908BF00281CBF4FF0FF314FF0FF306F
:1009B80000F072B9ADF1080C6DE904CE00F006F84C
:1009C800DDF804E0DDE9022304B070472DE9F047C3
:1009D800089E04468846002B4BD18A42154667D9A3
:1009E800B2FA82F24AB1C2F1200701FA02F320FA00
:1009F80007F7954047EA030894404FEA154E230C41
:100A0800B8FBFEF71FFA85FC0EFB178843EA08437C
:100A180007FB0CF1994209D9EB1807F1FF3080F078
:100A28001B81994240F21881023F2B445B1AA4B201
:100A3800B3FBFEF00EFB103344EA034400FB0CFC4E
:100A4800A44509D92C1900F1FF3380F00781A4458A
:100A580040F2048102382C4440EA0740A4EB0C041D
:100A680000271EB1D4400023C6E900433946BDE83B
:100A7800F0878B4209D9002E00F0EB800027C6E9E9
:100A8800000138463946BDE8F087B3FA83F7002FEE
:100A980047D18B4202D3824200F2FA80841A61EB7A
:100AA800030301209846002EE0D0C6E90048DDE7A0
:100AB80002B9FFDEB2FA82F2002A40F08F80491BA9
:100AC8004FEA154E1FFA85F80127B1FBFEFC230CEF
:100AD8000EFB1C1143EA014308FB0CF1994207D9AC
:100AE800EB180CF1FF3002D2994200F2CD80844617
:100AF800591AA3B2B1FBFEF00EFB101443EA0444EA
:100B080008FB00F8A04507D92C1900F1FF3302D2E1
:100B1800A04500F2B6801846A4EB080440EA0C4051
:100B28009FE7C7F1200CBB4022FA0CFE4EEA030EE9
:100B380001FA07F420FA0CF521FA0CF34FEA1E48E3
:100B48002543B3FBF8F92C0C08FB19331FFA8EFA6E
:100B580044EA034309FB0AF49C4202FA07F200FA4A
:100B680007F10BD91EEB030309F1FF3080F08780F2
:100B78009C4240F28480A9F1020973441B1BADB268
:100B8800B3FBF8F008FB103345EA034400FB0AFA0C
:100B9800A24508D91EEB040400F1FF336BD2A2452D
:100BA80069D90238744440EA0940A0FB0289A4EBE1
:100BB8000A044C45C2464B4654D351D0002E69D046
:100BC800B1EB0A0564EB030404FA0CFCFD40FC409D
:100BD8004CEA0505C6E90054002747E7C2F120039F
:100BE80020FA03F7954001FA02F021FA03F34FEADD
:100BF800154E3843010CB3FBFEF71FFA85F80EFBC0
:100C0800173341EA034107FB08F38B4204FA02F465
:100C180007D9691807F1FF3C2FD28B422DD9023F23
:100C28002944CB1A81B2B3FBFEF00EFB103341EA24
:100C3800034100FB08F38B4207D9691800F1FF3C18
:100C480017D28B4215D902382944C91A40EA0747F6
:100C58003BE73746304609E70746E7E61846FBE62E
:100C68004145ABD2B8EB020A69EB0E0201381346D4
:100C7800A4E76046E9E7184695E76746D1E7814665
:100C88007CE702382C4447E7ACF1020C2B442FE7F1
:100C9800384608E73746E9E6704700BF10B504460E
:100CA8000E4B18784FF47A73B3FBF0F30C4A1068C4
:100CB800B0FBF3F000F076F868B90F2C01D90120E9
:100CC8000AE0002221464FF0FF3000F037F8034BCE
:100CD8005C60002000E0012010BD00BF0000002083
:100CE8000800002008B50B4B1A6842F400721A601D
:100CF8001A6842F480621A601A6842F480721A60B4
:100D0800032000F009F80020FFF7C8FF01F004F9FC
:100D1800002008BD003C0240074AD36823F4E06382
:100D28001B041B0C000200F4E060184340F0BF6095
:100D380040F40030D060704700ED00E030B4174B4D
:100D4800DB68C3F30223C3F10704042C28BF04247F
:100D58001D1D062D18D9033B4FF0FF3505FA04F485
:100D680021EA0401994005FA03F322EA030319432F
:100D780000280BDB0901C9B200F1604000F56140B1
:100D880080F8001330BC70470023E5E700F00F003F
:100D98000901C9B2024B1954F4E700BF00ED00E0A5
:100DA80014ED00E00138B0F1807F0AD2064B58609C
:100DB800064AF02182F823100020986007221A6062
:100DC80070470120704700BF10E000E000ED00E030
:100DD800042805D0054A136823F0040313607047FC
:100DE800024A136843F004031360704710E000E000
:100DF800704708B5FFF7FCFF08BD000000230F2B64
:100E080000F2D780F0B482B039E0072200E0002277
:100E1800B2403A430234674E46F82420664A1468C2
:100E2800EA4302EA04064F6817F4803F01D045EA16
:100E38000406614C2660646802EA04064F6817F4E9
:100E4800003F01D045EA04065B4C6660A46802EAEC
:100E580004064F6817F4801F01D045EA0406564C73
:100E6800A660E46822404E6816F4001F01D045EAE7
:100E78000402514CE26001330F2B00F297800122EB
:100E88009A400C6804EA0205AA42F4D14C68022C84
:100E980001D0122C10D1DE08083650F826C003F015
:100EA8000704A7000F24BC402CEA040C0C69BC40C2
:100EB80044EA0C0440F8264004685F000326BE405C
:100EC800F64306EA040C4C6804F00304BC4044EA08
:100ED8000C0404604C6804F1FF3CBCF1010F03D919
:100EE800112C01D0122C10D1846806EA040CCC68AD
:100EF800BC4044EA0C048460446824EA02024C685A
:100F0800C4F300149C4014434460C26816408A68C5
:100F1800BA403243C2604A6812F0805FABD0002208
:100F28000192264A546C44F480445464526C02F48E
:100F380080420192019A9C08A61C1E4A52F826700B
:100F480003F0030296000F22B24027EA02071C4A68
:100F580090423FF45CAF02F5806290421AD002F5ED
:100F68008062904218D002F58062904216D002F555
:100F78008062904214D002F58062904212D002F54D
:100F88008062904210D002F5806290423FF43DAFFB
:100F980008223DE701223BE7022239E7032237E72F
:100FA800042235E7052233E7062231E702B0F0BC18
:100FB8007047704700380140003C0140003802404B
:100FC800000002400369194201D100207047012046
:100FD800704712B909048161704781617047000048
:100FE800002800F0BB8170B582B00446036813F096
:100FF800010F3BD0A74B9B6803F00C03042B2CD0AC
:10100800A44B9B6803F00C03082B21D06368B3F54D
:10101800803F4FD0B3F5A02F52D09E4B1A6822F4D0
:1010280080321A601A6822F480221A606368002BE2
:1010380050D001F071F80546964B1B6813F4003F39
:1010480014D101F069F8401B6428F5D903208AE11E
:10105800904B5B6813F4800FD8D08E4B1B6813F449
:10106800003F03D06368002B00F07A81236813F0F7
:10107800020F55D0874B9B6813F00C0F3ED0854B61
:101088009B6803F00C03082B33D0E368002B68D06F
:10109800814B01221A6001F03FF805467D4B1B6821
:1010A80013F0020F54D101F037F8401B0228F5D98C
:1010B800032058E1774A136843F480331360B5E797
:1010C800744B1A6842F480221A601A6842F480321B
:1010D8001A60ABE701F020F805466E4B1B6813F465
:1010E800003FC3D001F018F8401B6428F5D903204D
:1010F80039E1684B5B6813F4800FC6D1654B1B68F8
:1011080013F0020F04D0E368012B01D001202AE17B
:10111800604A136823F0F803216943EAC1031360A6
:10112800236813F0080F40D0636963B35B4B012257
:101138001A6000F0F1FF0546564B5B6F13F0020F83
:1011480033D100F0E9FF401B0228F5D903200AE15A
:10115800504A136823F0F803216943EAC103136076
:10116800DEE74D4B00221A6000F0D6FF0546494BDA
:101178001B6813F0020FD3D000F0CEFF401B0228EB
:10118800F5D90320EFE0454B00221A6000F0C4FFB8
:101198000546404B5B6F13F0020F06D000F0BCFF12
:1011A800401B0228F5D90320DDE0236813F0040F63
:1011B80079D0384B1B6C13F0805F33D10023019337
:1011C800344B1A6C42F080521A641B6C03F0805343
:1011D8000193019B0125324B1B6813F4807F23D0B8
:1011E800A368012B34D0052B38D02A4B1A6F22F074
:1011F80001021A671A6F22F004021A67A368002B0B
:1012080036D000F089FF0646224B1B6F13F0020F01
:1012180048D100F081FF801B41F288339842F3D90E
:101228000320A0E00025D6E71D4A136843F4807325
:10123800136000F071FF0646194B1B6813F4807F9A
:10124800CED100F069FF801B0228F5D903208AE07F
:10125800104A136F43F001031367CFE70D4B1A6F62
:1012680042F004021A671A6F42F001021A67C5E7D2
:1012780000F052FF0646074B1B6F13F0020F11D008
:1012880000F04AFF801B41F288339842F3D90320CB
:1012980069E000BF0038024000004742800E474224
:1012A80000700040E5B9A369002B5BD0304A926812
:1012B80002F00C02082A58D0022B17D02D4B00221E
:1012C8001A6000F029FF0446294B1B6813F0007FC1
:1012D80042D000F021FF001B0228F5D9032042E08C
:1012E800234A136C23F080531364DCE7214B00225C
:1012F8001A6000F011FF05461D4B1B6813F0007FB4
:1013080006D000F009FF401B0228F5D903202AE087
:10131800E369226A1343626A43EA8213A26A5208A3
:10132800013A43EA0243E26A43EA0263104A53601D
:10133800104B01221A6000F0EFFE04460C4B1B68AC
:1013480013F0007F06D100F0E7FE001B0228F5D954
:10135800032008E0002006E0002004E00120704798
:10136800012000E0002002B070BD0120FBE700BFB3
:101378000038024060004742324B9B6803F00C0380
:10138800042B5CD0082B01D02F4870472DE9F04B77
:101398002C4B5A6802F03F025B6813F4800F2BD085
:1013A800284B5B68C3F388131E4600275C010025A1
:1013B800E41A65EB0705A90141EA9461A001001B45
:1013C80061EB0501CB0043EA5073C400A01943EB5D
:1013D80007014B0243EAD053440220461946002332
:1013E800FFF7DCFA174B5B68C3F3014301335B007B
:1013F800B0FBF3F0BDE8F08B124B5B68C3F38813C6
:101408001E4600275C010025E41A65EB0705A901C3
:1014180041EA9461A001001B61EB0501CB0043EA9E
:101428005073C400A01943EB07018B0243EA9053A1
:101438008402204619460023FFF7B0FAD2E7034892
:10144800704700BF003802400024F40000127A0000
:10145800002800F09D8070B504464F4B1B6803F0D0
:101468000F038B4209D2CBB24B4A1370136803F0B7
:101478000F038B4201D0012070BD236813F0020FC7
:1014880017D013F0040F04D0444A936843F4E05390
:101498009360236813F0080F04D0404A936843F41C
:1014A800604393603D4A936823F0F003A0680343C8
:1014B80093600D46236813F0010F32D06368012B47
:1014C80021D09A1E012A25D9344A126812F0020F37
:1014D80060D032498A6822F0030213438B6000F01F
:1014E8001BFE06462D4B9B6803F00C036268B3EBAA
:1014F800820F16D000F010FE801B41F2883398420C
:10150800F0D90320B8E7254A126812F4003FE0D169
:101518000120B1E7214A126812F0007FD9D10120D9
:10152800AAE71D4B1B6803F00F03AB4209D9EAB2C7
:10153800194B1A701B6803F00F03AB4201D001204E
:101548009AE7236813F0040F06D0144A936823F42B
:10155800E053E1680B439360236813F0080F07D04A
:101568000E4A936823F46043216943EAC1039360F8
:10157800FFF702FF094B9B68C3F30313084AD35CC8
:10158800D840084B18600020FFF788FB002073E75D
:101598000120704701206FE7003C024000380240FC
:1015A8001022000808000020014B1868704700BF8F
:1015B8000800002008B5FFF7F7FF044B9B68C3F34A
:1015C8008223034AD35CD84008BD00BF00380240DC
:1015D8002022000808B5FFF7E7FF044B9B68C3F318
:1015E8004233034AD35CD84008BD00BF00380240EC
:1015F800202200082DE9F843044601680A6922F40C
:101608004052C36813430B610168CA6822F416424A
:1016180022F00C0283680069034360690343E069B0
:1016280003431343CB6021684A6922F44072A369DB
:1016380013434B61E369B3F5004F60D02368B84AA0
:10164800934200F0148102F58062934200F00F810A
:10165800FFF7B0FF00EB800000EB80006568AD008D
:10166800B0FBF5F5AF4FA7FB05356D092E01FFF768
:10167800A1FF00EB800000EB80006568AD00B0FBC7
:10168800F5F9FFF797FF00EB800000EB8000656835
:10169800AD00B0FBF5F5A7FB05356D094FF0640803
:1016A80008FB15952D013235A7FB05356D0905F0A9
:1016B800F0053544FFF77EFF00EB800000EB80006B
:1016C8006668B600B0FBF6F6FFF774FF00EB800023
:1016D80000EB800063689B00B0FBF3F0A7FB0030D1
:1016E800400908FB10684FEA081808F13208A7FB00
:1016F8000837C7F3431723682F449F600DE1236819
:10170800874A93425BD002F58062934257D0FFF735
:1017180051FF00EB800000EB800065686D00B0FBB6
:10172800F5F5804FA7FB05356D092E01FFF742FF40
:1017380000EB800000EB800065686D00B0FBF5F9F8
:10174800FFF738FF00EB800000EB800065686D0054
:10175800B0FBF5F5A7FB05356D094FF0640808FBEC
:101768001595ED003235A7FB05356D096D0005F4BB
:10177800F8753544FFF71EFF00EB800000EB800092
:1017880066687600B0FBF6F6FFF714FF00EB800002
:1017980000EB800063685B00B0FBF3F3A7FB032357
:1017A8005B0908FB13684FEAC80808F13208A7FB71
:1017B8000837C7F3421723682F449F60ADE0FFF74F
:1017C80009FF00EB800000EB800065686D00B0FB4E
:1017D800F5F5544FA7FB05356D092E01FFF7FAFE05
:1017E80000EB800000EB800065686D00B0FBF5F948
:1017F800FFF7F0FE00EB800000EB800065686D00ED
:10180800B0FBF5F5A7FB05356D094FF0640808FB3B
:101818001595ED003235A7FB05356D096D0005F40A
:10182800F8753544FFF7D6FE00EB800000EB80002A
:1018380066687600B0FBF6F6FFF7CCFE00EB80009A
:1018480000EB800063685B00B0FBF3F3A7FB0323A6
:101858005B0908FB13684FEAC80808F13208A7FBC0
:101868000837C7F3421723682F449F6055E0FFF7F6
:10187800B1FE00EB800000EB80006568AD00B0FBB6
:10188800F5F5284FA7FB05356D092E01FFF7A2FED8
:1018980000EB800000EB80006568AD00B0FBF5F957
:1018A800FFF798FE00EB800000EB80006568AD0054
:1018B800B0FBF5F5A7FB05356D094FF0640808FB8B
:1018C80015952D013235A7FB05356D0905F0F00595
:1018D8003544FFF77FFE00EB800000EB8000666870
:1018E800B600B0FBF6F6FFF775FE00EB800000EBE4
:1018F800800063689B00B0FBF3F0A7FB0030400951
:1019080008FB10684FEA081808F13208A7FB0837E7
:10191800C7F3431723682F449F60BDE8F88300BFCF
:10192800001001401F85EB512DE9F04105460F4697
:1019380016469846069C2B681B6837EA03030CBFBB
:1019480001230023B3421DD1B4F1FF3FF3D02CB1E2
:1019580000F0E2FBA0EB0800A042ECD92A68D368AB
:1019680023F4D073D3602A68536923F001035361C9
:10197800202385F8393085F83A30002385F8383047
:10198800032000E00020BDE8F08158B310B50446FC
:1019980090F839300BB3242384F839302268D3689F
:1019A80023F40053D3602046FFF724FE226813690E
:1019B80023F4904313612268536923F02A03536187
:1019C8002268D36843F40053D3600020E0632023E7
:1019D80084F8393084F83A3010BD80F8383000F097
:1019E800E5FAD8E7012070472DE9F04182B01E469C
:1019F80090F83930DBB2202B55D104460D4690467D
:101A0800002955D0002A55D090F83830012B53D0F2
:101A1800012380F838300023C363212380F839304C
:101A280000F07AFB0746A4F82480A4F8268010E08A
:101A380000963B46002280212046FFF775FF0028CC
:101A48003CD12B882268C3F3080353602369C3B9C8
:101A58000235E38C9BB2B3B1E38C013B9BB2E384C8
:101A6800A368B3F5805FE3D000963B46002280214F
:101A78002046FFF759FF18BB2A7823685A600135BA
:101A8800E7E70135E5E700963B460022402120467E
:101A9800FFF74AFF0346A8B9202284F8392000221C
:101AA80084F8382000E00223184602B0BDE8F0812F
:101AB8000123F9E70123F7E70223F5E70323F3E717
:101AC8000323F1E70323EFE72DE9F04F8DB000245E
:101AD8000194784B1A6B42F010021A631A6B02F0E9
:101AE80010020192019A02941A6B42F004021A63DE
:101AF8001A6B02F004020292029A03941A6B42F0E3
:101B080080021A631A6B02F080020392039A04940B
:101B18001A6B42F001021A631A6B02F00102049276
:101B2800049A05941A6B42F002021A631A6B02F0C7
:101B380002020592059A06941A6B42F008021A638B
:101B48001B6B03F008030693069B224608215A489C
:101B5800FFF73FFA012211465848FFF73AFA2246A2
:101B68004FF210215648FFF734FA08250795012649
:101B7800089609940A9407A94F48FFF73FF9079672
:101B8800089609940A9407A94C48FFF737F907956E
:101B98000225089509940A944FF00508CDF82C8081
:101BA80007A94648FFF72AF90796DFF82091CDF8EC
:101BB80020900994434F07A93846FFF71FF91023CF
:101BC8000793089509940A944FF0060BCDF82CB0AA
:101BD80007A93846FFF712F9E023079308950994F7
:101BE8000A94CDF82C8007A93846FFF707F94FF07B
:101BF800040ACDF81CA00894099407A93248FFF7F5
:101C0800FDF84FF480630793089509940A94CDF87A
:101C18002C8007A92C48FFF7F1F84FF4907307932D
:101C28000894099407A92648FFF7E8F84FF210230B
:101C38000793089609940A9407A92148FFF7DEF844
:101C48004FF4A4530793089509940A94CDF82CB03F
:101C580007A91A48FFF7D2F84FF4007307930894BE
:101C6800099407A93846FFF7C9F84FF4E0530793DA
:101C7800089509940A940A230B9307A93846FFF795
:101C8800BDF84FF4107307931223089309960A942A
:101C9800CDF82CA007A90C48FFF7B0F80795CDF8A8
:101CA8002090099407A90448FFF7A8F80DB0BDE8EB
:101CB800F08F00BF003802400010024000080240C8
:101CC800000C024000000240000402400000121014
:101CD80082B00A4B1B680A4AA2FB03239B0C03FB36
:101CE80000F00190074B5B680093064B5B68009A15
:101CF8009B1A019A9342F8D302B07047080000205B
:101D080083DE1B43001000E0FEE7000008B50B4827
:101D18000B4B03604FF4E133436000238360C360DF
:101D280003610C2242618361C361FFF72EFE00B993
:101D380008BD4FF48F710348FFF7E6FF5C100020E1
:101D4800004400402822000800B595B00022019206
:101D58002A4B196C41F0805119641B6C03F08053B5
:101D68000193019B0292264B196841F48041196046
:101D78001B6803F480430293029B0223089301210A
:101D88000B9110210C910E930F920822109232227F
:101D9800119212930723139308A8FFF721F920BB88
:101DA8000F23039302230493802305934FF4A05336
:101DB80006934FF480530793002103A8FFF748FBCD
:101DC800B8B9FFF7F1FB0F4BA3FB00308009FEF712
:101DD800E9FF0420FEF7FCFF002211464FF0FF3018
:101DE800FEF7ACFF15B05DF804FBF3210648FFF7DA
:101DF8008BFF40F201110448FFF786FF00380240CC
:101E080000700040D34D6210282200080000000036
:101E180008B5FEF767FFFFF797FFFFF755FEFFF7D7
:101E280075FF00F019F939E0354A1368013313607A
:101E38000120FFF74DFF4FF480713248FFF7C2F8D9
:101E48000128F1D02E4B1C682F4B1C6007EE904ADE
:101E5800F8EE677A17EE900AFEF716FB26A3D3E989
:101E68000023FEF769FB02460B46FEF7AFF9FEF7C3
:101E780075FD264B1860B4F5FA6F31D901224FF47D
:101E880080512048FFF7A5F8214B00221A704FF423
:101E98007A7301221E491F48FFF7A6FD0025184B3B
:101EA8001D604FF4FA7000F03DF9164C01224FF412
:101EB80000712046FFF78DF80220FFF709FF2A4638
:101EC8004FF400712046FFF784F80A20FFF700FF5F
:101ED8004FF480710B48FFF775F80028F8D0AAE78F
:101EE80000224FF480510748FFF773F8084B01228E
:101EF8001A70CCE7AFF30080A6704E362F98913F4A
:101F080058000020000C02404C0000205000002027
:101F18009C1000205C10002010B582B000240094B2
:101F2800214B5A6C42F480425A645A6C02F4804243
:101F38000092009A01941A6C42F080521A641B6C49
:101F480003F080530193019B0720FEF7E5FE22462C
:101F580021466FF00B00FEF7F1FE224621466FF096
:101F68000A00FEF7EBFE224621466FF00900FEF755
:101F7800E5FE224621466FF00400FEF7DFFE22460A
:101F880021466FF00300FEF7D9FE224621466FF086
:101F98000100FEF7D3FE224621464FF0FF30FEF740
:101FA800CDFE02B010BD00BF003802400268114BE0
:101FB8009A4200D0704700B587B0002300930E4BBB
:101FC8001A6C42F400321A641B6C03F40033009359
:101FD800009B0C2301930223029301230393032301
:101FE80004930723059301A90448FEF707FF07B0E8
:101FF8005DF804FB00440040003802400000024045
:1020080008B500F049F8FEF7F4FE08BD0F49D1F80D
:10201800883043F47003C1F888300D4B1A6842F0D9
:1020280001021A60002098601A6822F0847222F473
:1020380080321A60074A5A601A6822F480221A60AD
:10204800D8604FF000638B60704700BF00ED00E080
:1020580000380240103000240C4BDA6822F08072FD
:10206800DA60DA6842F08072DA60094B1A6822F0A6
:1020780001021A601A6842F001021A6000225A60CE
:102088005A6800BF00BF5868801A7047F0ED00E03A
:10209800001000E07047000038B51E4B9A69013205
:1020A8009A61DB691BB11B4AD369013BD3610024E8
:1020B80001E00134E4B2174B1B78A34227D9254627
:1020C800144B03EB84035B68002BF2D01A7812F0F0
:1020D800020FEED09A680AB1013A9A600D4B03EBF1
:1020E800850358688368002BE3D1C3680169984762
:1020F800084B03EB85056B685A689A601A7812F0EA
:10210800010FD6D11A786FF341021A70D1E7FFF7A1
:10211800C1FF38BD28000020014B9869704700BFF7
:102128002800002038B50446EFF305833BB174B1AD
:10213800074B1B6813F4803FF9D0013CF7E7FFF722
:10214800EBFF0546FFF7E8FF401BA042FAD338BD76
:1021580010E000E0DFF834D0002103E00C4B5B58BE
:10216800435004310B480C4B42189A42F6D30B4AA1
:1021780002E0002342F8043B094B9A42F9D3FFF7E7
:1021880045FF00F011F8FFF743FE704700000220FA
:1021980048220008000000200C0000200C0000204D
:1021A800A4100020FEE7000070B50D4E0D4CA41BD6
:1021B800A4100025A54209D10B4E0C4C00F018F8CC
:1021C800A41BA4100025A54205D170BD56F82530E2
:1021D80098470135EEE756F8253098470135F2E77C
:1021E800402200084022000840220008442200083B
:1021F800F8B500BFF8BC08BC9E467047F8B500BFEC
:08220800F8BC08BC9E467047BB
:102210000000000000000000010203040607080996
:1022200000000000010203042E2E2F5372632F6D55
:0822300061696E2E63000000DD
:082238009CE7FF7F010000009C
:04224000AD010008E4
:042244008901000804
:0C22480001000000100000000024F40061
:040000050800215D71
:00000001FF
